{
	"data": {
		"bytecode": {
			"linkReferences": {},
			"object": "608060405234801561001057600080fd5b50610289806100206000396000f30060806040526004361061006d576000357c0100000000000000000000000000000000000000000000000000000000900463ffffffff168063771602f714610072578063a391c15b146100a9578063b67d77c5146100e0578063c8a4ac9c14610117578063de2927891461014e575b600080fd5b34801561007e57600080fd5b506100a76004803603810190808035906020019092919080359060200190929190505050610179565b005b3480156100b557600080fd5b506100de6004803603810190808035906020019092919080359060200190929190505050610186565b005b3480156100ec57600080fd5b50610115600480360381019080803590602001909291908035906020019092919050505061023a565b005b34801561012357600080fd5b5061014c6004803603810190808035906020019092919080359060200190929190505050610247565b005b34801561015a57600080fd5b50610163610254565b6040518082815260200191505060405180910390f35b8082016000819055505050565b600081111515610224576040517f08c379a000000000000000000000000000000000000000000000000000000000815260040180806020018281038252602c8152602001807f546865207365636f6e6420706172616d657465722073686f756c64206265206c81526020017f6172676572207468616e2030000000000000000000000000000000000000000081525060400191505060405180910390fd5b808281151561022f57fe5b046000819055505050565b8082036000819055505050565b8082026000819055505050565b600080549050905600a165627a7a7230582011647dd547504f28839bce738b213859e3f079b13edbfb0df23d0f0c2070cf8a0029",
			"opcodes": "PUSH1 0x80 PUSH1 0x40 MSTORE CALLVALUE DUP1 ISZERO PUSH2 0x10 JUMPI PUSH1 0x0 DUP1 REVERT JUMPDEST POP PUSH2 0x289 DUP1 PUSH2 0x20 PUSH1 0x0 CODECOPY PUSH1 0x0 RETURN STOP PUSH1 0x80 PUSH1 0x40 MSTORE PUSH1 0x4 CALLDATASIZE LT PUSH2 0x6D JUMPI PUSH1 0x0 CALLDATALOAD PUSH29 0x100000000000000000000000000000000000000000000000000000000 SWAP1 DIV PUSH4 0xFFFFFFFF AND DUP1 PUSH4 0x771602F7 EQ PUSH2 0x72 JUMPI DUP1 PUSH4 0xA391C15B EQ PUSH2 0xA9 JUMPI DUP1 PUSH4 0xB67D77C5 EQ PUSH2 0xE0 JUMPI DUP1 PUSH4 0xC8A4AC9C EQ PUSH2 0x117 JUMPI DUP1 PUSH4 0xDE292789 EQ PUSH2 0x14E JUMPI JUMPDEST PUSH1 0x0 DUP1 REVERT JUMPDEST CALLVALUE DUP1 ISZERO PUSH2 0x7E JUMPI PUSH1 0x0 DUP1 REVERT JUMPDEST POP PUSH2 0xA7 PUSH1 0x4 DUP1 CALLDATASIZE SUB DUP2 ADD SWAP1 DUP1 DUP1 CALLDATALOAD SWAP1 PUSH1 0x20 ADD SWAP1 SWAP3 SWAP2 SWAP1 DUP1 CALLDATALOAD SWAP1 PUSH1 0x20 ADD SWAP1 SWAP3 SWAP2 SWAP1 POP POP POP PUSH2 0x179 JUMP JUMPDEST STOP JUMPDEST CALLVALUE DUP1 ISZERO PUSH2 0xB5 JUMPI PUSH1 0x0 DUP1 REVERT JUMPDEST POP PUSH2 0xDE PUSH1 0x4 DUP1 CALLDATASIZE SUB DUP2 ADD SWAP1 DUP1 DUP1 CALLDATALOAD SWAP1 PUSH1 0x20 ADD SWAP1 SWAP3 SWAP2 SWAP1 DUP1 CALLDATALOAD SWAP1 PUSH1 0x20 ADD SWAP1 SWAP3 SWAP2 SWAP1 POP POP POP PUSH2 0x186 JUMP JUMPDEST STOP JUMPDEST CALLVALUE DUP1 ISZERO PUSH2 0xEC JUMPI PUSH1 0x0 DUP1 REVERT JUMPDEST POP PUSH2 0x115 PUSH1 0x4 DUP1 CALLDATASIZE SUB DUP2 ADD SWAP1 DUP1 DUP1 CALLDATALOAD SWAP1 PUSH1 0x20 ADD SWAP1 SWAP3 SWAP2 SWAP1 DUP1 CALLDATALOAD SWAP1 PUSH1 0x20 ADD SWAP1 SWAP3 SWAP2 SWAP1 POP POP POP PUSH2 0x23A JUMP JUMPDEST STOP JUMPDEST CALLVALUE DUP1 ISZERO PUSH2 0x123 JUMPI PUSH1 0x0 DUP1 REVERT JUMPDEST POP PUSH2 0x14C PUSH1 0x4 DUP1 CALLDATASIZE SUB DUP2 ADD SWAP1 DUP1 DUP1 CALLDATALOAD SWAP1 PUSH1 0x20 ADD SWAP1 SWAP3 SWAP2 SWAP1 DUP1 CALLDATALOAD SWAP1 PUSH1 0x20 ADD SWAP1 SWAP3 SWAP2 SWAP1 POP POP POP PUSH2 0x247 JUMP JUMPDEST STOP JUMPDEST CALLVALUE DUP1 ISZERO PUSH2 0x15A JUMPI PUSH1 0x0 DUP1 REVERT JUMPDEST POP PUSH2 0x163 PUSH2 0x254 JUMP JUMPDEST PUSH1 0x40 MLOAD DUP1 DUP3 DUP2 MSTORE PUSH1 0x20 ADD SWAP2 POP POP PUSH1 0x40 MLOAD DUP1 SWAP2 SUB SWAP1 RETURN JUMPDEST DUP1 DUP3 ADD PUSH1 0x0 DUP2 SWAP1 SSTORE POP POP POP JUMP JUMPDEST PUSH1 0x0 DUP2 GT ISZERO ISZERO PUSH2 0x224 JUMPI PUSH1 0x40 MLOAD PUSH32 0x8C379A000000000000000000000000000000000000000000000000000000000 DUP2 MSTORE PUSH1 0x4 ADD DUP1 DUP1 PUSH1 0x20 ADD DUP3 DUP2 SUB DUP3 MSTORE PUSH1 0x2C DUP2 MSTORE PUSH1 0x20 ADD DUP1 PUSH32 0x546865207365636F6E6420706172616D657465722073686F756C64206265206C DUP2 MSTORE PUSH1 0x20 ADD PUSH32 0x6172676572207468616E20300000000000000000000000000000000000000000 DUP2 MSTORE POP PUSH1 0x40 ADD SWAP2 POP POP PUSH1 0x40 MLOAD DUP1 SWAP2 SUB SWAP1 REVERT JUMPDEST DUP1 DUP3 DUP2 ISZERO ISZERO PUSH2 0x22F JUMPI INVALID JUMPDEST DIV PUSH1 0x0 DUP2 SWAP1 SSTORE POP POP POP JUMP JUMPDEST DUP1 DUP3 SUB PUSH1 0x0 DUP2 SWAP1 SSTORE POP POP POP JUMP JUMPDEST DUP1 DUP3 MUL PUSH1 0x0 DUP2 SWAP1 SSTORE POP POP POP JUMP JUMPDEST PUSH1 0x0 DUP1 SLOAD SWAP1 POP SWAP1 JUMP STOP LOG1 PUSH6 0x627A7A723058 KECCAK256 GT PUSH5 0x7DD547504F 0x28 DUP4 SWAP12 0xce PUSH20 0x8B213859E3F079B13EDBFB0DF23D0F0C2070CF8A STOP 0x29 "
		},
		"gasEstimates": {
			"creation": {
				"codeDepositCost": "129800",
				"executionCost": "177",
				"totalCost": "129977"
			},
			"external": {
				"add(uint256,uint256)": "20240",
				"div(uint256,uint256)": "20316",
				"getResult()": "340",
				"mul(uint256,uint256)": "20308",
				"sub(uint256,uint256)": "20284"
			}
		},
		"methodIdentifiers": {
			"add(uint256,uint256)": "771602f7",
			"div(uint256,uint256)": "a391c15b",
			"getResult()": "de292789",
			"mul(uint256,uint256)": "c8a4ac9c",
			"sub(uint256,uint256)": "b67d77c5"
		}
	},
	"abi": [
		{
			"constant": false,
			"inputs": [
				{
					"name": "a",
					"type": "uint256"
				},
				{
					"name": "b",
					"type": "uint256"
				}
			],
			"name": "add",
			"outputs": [],
			"payable": false,
			"stateMutability": "nonpayable",
			"type": "function"
		},
		{
			"constant": false,
			"inputs": [
				{
					"name": "a",
					"type": "uint256"
				},
				{
					"name": "b",
					"type": "uint256"
				}
			],
			"name": "div",
			"outputs": [],
			"payable": false,
			"stateMutability": "nonpayable",
			"type": "function"
		},
		{
			"constant": false,
			"inputs": [
				{
					"name": "a",
					"type": "uint256"
				},
				{
					"name": "b",
					"type": "uint256"
				}
			],
			"name": "sub",
			"outputs": [],
			"payable": false,
			"stateMutability": "nonpayable",
			"type": "function"
		},
		{
			"constant": false,
			"inputs": [
				{
					"name": "a",
					"type": "uint256"
				},
				{
					"name": "b",
					"type": "uint256"
				}
			],
			"name": "mul",
			"outputs": [],
			"payable": false,
			"stateMutability": "nonpayable",
			"type": "function"
		},
		{
			"constant": true,
			"inputs": [],
			"name": "getResult",
			"outputs": [
				{
					"name": "x",
					"type": "uint256"
				}
			],
			"payable": false,
			"stateMutability": "view",
			"type": "function"
		}
	]
}